{
  "contractName": "SupplyChainCode",
  "abi": [
    {
      "inputs": [],
      "payable": false,
      "stateMutability": "nonpayable",
      "type": "constructor"
    },
    {
      "anonymous": false,
      "inputs": [
        {
          "indexed": false,
          "internalType": "string",
          "name": "status",
          "type": "string"
        },
        {
          "indexed": false,
          "internalType": "uint256",
          "name": "productCount",
          "type": "uint256"
        },
        {
          "indexed": false,
          "internalType": "uint256",
          "name": "productCount2",
          "type": "uint256"
        },
        {
          "indexed": false,
          "internalType": "address",
          "name": "owner",
          "type": "address"
        },
        {
          "indexed": false,
          "internalType": "uint256",
          "name": "price",
          "type": "uint256"
        }
      ],
      "name": "checkStockByCompany",
      "type": "event"
    },
    {
      "anonymous": false,
      "inputs": [
        {
          "indexed": false,
          "internalType": "string",
          "name": "status",
          "type": "string"
        },
        {
          "indexed": false,
          "internalType": "uint256",
          "name": "productCount",
          "type": "uint256"
        },
        {
          "indexed": false,
          "internalType": "address",
          "name": "owner",
          "type": "address"
        }
      ],
      "name": "orderCompletedByDistributor",
      "type": "event"
    },
    {
      "anonymous": false,
      "inputs": [
        {
          "indexed": false,
          "internalType": "string",
          "name": "name",
          "type": "string"
        },
        {
          "indexed": false,
          "internalType": "uint256",
          "name": "quantity",
          "type": "uint256"
        },
        {
          "indexed": false,
          "internalType": "string",
          "name": "status",
          "type": "string"
        },
        {
          "indexed": false,
          "internalType": "uint256",
          "name": "orderPayment",
          "type": "uint256"
        }
      ],
      "name": "orderCreatedforCompany",
      "type": "event"
    },
    {
      "anonymous": false,
      "inputs": [
        {
          "indexed": false,
          "internalType": "string",
          "name": "name",
          "type": "string"
        },
        {
          "indexed": false,
          "internalType": "uint256",
          "name": "quantity",
          "type": "uint256"
        },
        {
          "indexed": false,
          "internalType": "string",
          "name": "status",
          "type": "string"
        },
        {
          "indexed": false,
          "internalType": "uint256",
          "name": "orderPayment",
          "type": "uint256"
        }
      ],
      "name": "orderCreatedfordistributor",
      "type": "event"
    },
    {
      "anonymous": false,
      "inputs": [
        {
          "indexed": false,
          "internalType": "string",
          "name": "name",
          "type": "string"
        },
        {
          "indexed": false,
          "internalType": "uint256",
          "name": "quantity",
          "type": "uint256"
        },
        {
          "indexed": false,
          "internalType": "string",
          "name": "status",
          "type": "string"
        }
      ],
      "name": "orderStatus",
      "type": "event"
    },
    {
      "anonymous": false,
      "inputs": [
        {
          "indexed": false,
          "internalType": "string",
          "name": "name",
          "type": "string"
        },
        {
          "indexed": false,
          "internalType": "uint256",
          "name": "quantity",
          "type": "uint256"
        },
        {
          "indexed": false,
          "internalType": "string",
          "name": "status",
          "type": "string"
        }
      ],
      "name": "ordertoManufacturerCreated",
      "type": "event"
    },
    {
      "anonymous": false,
      "inputs": [
        {
          "indexed": false,
          "internalType": "address",
          "name": "owner",
          "type": "address"
        },
        {
          "indexed": false,
          "internalType": "uint256",
          "name": "price",
          "type": "uint256"
        },
        {
          "indexed": false,
          "internalType": "bool",
          "name": "isSold",
          "type": "bool"
        },
        {
          "indexed": false,
          "internalType": "string",
          "name": "name",
          "type": "string"
        },
        {
          "indexed": false,
          "internalType": "uint256",
          "name": "productId",
          "type": "uint256"
        },
        {
          "indexed": false,
          "internalType": "bool",
          "name": "isCompleted",
          "type": "bool"
        },
        {
          "indexed": false,
          "internalType": "uint256",
          "name": "productCount",
          "type": "uint256"
        }
      ],
      "name": "productCreated",
      "type": "event"
    },
    {
      "anonymous": false,
      "inputs": [
        {
          "indexed": false,
          "internalType": "address",
          "name": "owner",
          "type": "address"
        }
      ],
      "name": "sellProductToCustomerEvent",
      "type": "event"
    },
    {
      "anonymous": false,
      "inputs": [
        {
          "indexed": false,
          "internalType": "string",
          "name": "status",
          "type": "string"
        },
        {
          "indexed": false,
          "internalType": "uint256",
          "name": "productCount",
          "type": "uint256"
        },
        {
          "indexed": false,
          "internalType": "uint256",
          "name": "productCount2",
          "type": "uint256"
        },
        {
          "indexed": false,
          "internalType": "address",
          "name": "owner",
          "type": "address"
        },
        {
          "indexed": false,
          "internalType": "uint256",
          "name": "price",
          "type": "uint256"
        }
      ],
      "name": "stockCheckedByDistributor",
      "type": "event"
    },
    {
      "anonymous": false,
      "inputs": [
        {
          "indexed": false,
          "internalType": "uint256",
          "name": "cost",
          "type": "uint256"
        }
      ],
      "name": "transportStockDistributor",
      "type": "event"
    },
    {
      "anonymous": false,
      "inputs": [
        {
          "indexed": false,
          "internalType": "uint256",
          "name": "cost",
          "type": "uint256"
        }
      ],
      "name": "transportationToRetailer",
      "type": "event"
    },
    {
      "constant": true,
      "inputs": [
        {
          "internalType": "address",
          "name": "",
          "type": "address"
        },
        {
          "internalType": "string",
          "name": "",
          "type": "string"
        }
      ],
      "name": "companyInventory",
      "outputs": [
        {
          "internalType": "uint256",
          "name": "productCount",
          "type": "uint256"
        }
      ],
      "payable": false,
      "stateMutability": "view",
      "type": "function"
    },
    {
      "constant": true,
      "inputs": [],
      "name": "companyOrderNumber",
      "outputs": [
        {
          "internalType": "uint256",
          "name": "",
          "type": "uint256"
        }
      ],
      "payable": false,
      "stateMutability": "view",
      "type": "function"
    },
    {
      "constant": true,
      "inputs": [],
      "name": "company_name",
      "outputs": [
        {
          "internalType": "string",
          "name": "",
          "type": "string"
        }
      ],
      "payable": false,
      "stateMutability": "view",
      "type": "function"
    },
    {
      "constant": true,
      "inputs": [
        {
          "internalType": "address",
          "name": "",
          "type": "address"
        },
        {
          "internalType": "uint256",
          "name": "",
          "type": "uint256"
        }
      ],
      "name": "giveOrders",
      "outputs": [
        {
          "internalType": "string",
          "name": "name",
          "type": "string"
        },
        {
          "internalType": "uint256",
          "name": "quantity",
          "type": "uint256"
        },
        {
          "internalType": "string",
          "name": "status",
          "type": "string"
        },
        {
          "internalType": "uint256",
          "name": "orderPayment",
          "type": "uint256"
        }
      ],
      "payable": false,
      "stateMutability": "view",
      "type": "function"
    },
    {
      "constant": true,
      "inputs": [],
      "name": "myEtherValue",
      "outputs": [
        {
          "internalType": "uint256",
          "name": "",
          "type": "uint256"
        }
      ],
      "payable": false,
      "stateMutability": "view",
      "type": "function"
    },
    {
      "constant": true,
      "inputs": [
        {
          "internalType": "string",
          "name": "",
          "type": "string"
        },
        {
          "internalType": "uint256",
          "name": "",
          "type": "uint256"
        }
      ],
      "name": "productDetailsMapping",
      "outputs": [
        {
          "internalType": "string",
          "name": "",
          "type": "string"
        }
      ],
      "payable": false,
      "stateMutability": "view",
      "type": "function"
    },
    {
      "constant": true,
      "inputs": [
        {
          "internalType": "string",
          "name": "",
          "type": "string"
        },
        {
          "internalType": "uint256",
          "name": "",
          "type": "uint256"
        }
      ],
      "name": "productToComponentMapping",
      "outputs": [
        {
          "internalType": "string",
          "name": "",
          "type": "string"
        }
      ],
      "payable": false,
      "stateMutability": "view",
      "type": "function"
    },
    {
      "constant": true,
      "inputs": [
        {
          "internalType": "address",
          "name": "",
          "type": "address"
        },
        {
          "internalType": "uint256",
          "name": "",
          "type": "uint256"
        }
      ],
      "name": "products",
      "outputs": [
        {
          "internalType": "address",
          "name": "owner",
          "type": "address"
        },
        {
          "internalType": "uint256",
          "name": "price",
          "type": "uint256"
        },
        {
          "internalType": "bool",
          "name": "isSold",
          "type": "bool"
        },
        {
          "internalType": "string",
          "name": "name",
          "type": "string"
        },
        {
          "internalType": "uint256",
          "name": "productId",
          "type": "uint256"
        },
        {
          "internalType": "bool",
          "name": "isCompleted",
          "type": "bool"
        }
      ],
      "payable": false,
      "stateMutability": "view",
      "type": "function"
    },
    {
      "constant": true,
      "inputs": [],
      "name": "retailerOrderNumber",
      "outputs": [
        {
          "internalType": "uint256",
          "name": "",
          "type": "uint256"
        }
      ],
      "payable": false,
      "stateMutability": "view",
      "type": "function"
    },
    {
      "constant": false,
      "inputs": [],
      "name": "setComponentsOfProducts",
      "outputs": [],
      "payable": false,
      "stateMutability": "nonpayable",
      "type": "function"
    },
    {
      "constant": false,
      "inputs": [
        {
          "internalType": "string",
          "name": "companyName",
          "type": "string"
        }
      ],
      "name": "signUp",
      "outputs": [],
      "payable": false,
      "stateMutability": "nonpayable",
      "type": "function"
    },
    {
      "constant": false,
      "inputs": [
        {
          "internalType": "string",
          "name": "_Componentname",
          "type": "string"
        },
        {
          "internalType": "uint256",
          "name": "number",
          "type": "uint256"
        },
        {
          "internalType": "address",
          "name": "_manufacturerCompany",
          "type": "address"
        }
      ],
      "name": "giveOrderToManufacturer",
      "outputs": [],
      "payable": true,
      "stateMutability": "payable",
      "type": "function"
    },
    {
      "constant": false,
      "inputs": [
        {
          "internalType": "uint256",
          "name": "_orderId",
          "type": "uint256"
        }
      ],
      "name": "orderInProgress",
      "outputs": [],
      "payable": false,
      "stateMutability": "nonpayable",
      "type": "function"
    },
    {
      "constant": false,
      "inputs": [
        {
          "internalType": "uint256",
          "name": "_orderId",
          "type": "uint256"
        }
      ],
      "name": "orderCompleted",
      "outputs": [],
      "payable": true,
      "stateMutability": "payable",
      "type": "function"
    },
    {
      "constant": false,
      "inputs": [
        {
          "internalType": "string",
          "name": "_productName",
          "type": "string"
        },
        {
          "internalType": "uint256",
          "name": "_makingPrice",
          "type": "uint256"
        },
        {
          "internalType": "uint256",
          "name": "_count",
          "type": "uint256"
        }
      ],
      "name": "createProduct",
      "outputs": [],
      "payable": false,
      "stateMutability": "nonpayable",
      "type": "function"
    },
    {
      "constant": false,
      "inputs": [
        {
          "internalType": "string",
          "name": "_productName",
          "type": "string"
        },
        {
          "internalType": "uint256",
          "name": "quantity",
          "type": "uint256"
        }
      ],
      "name": "distributorRequirement",
      "outputs": [],
      "payable": true,
      "stateMutability": "payable",
      "type": "function"
    },
    {
      "constant": false,
      "inputs": [
        {
          "internalType": "uint256",
          "name": "_orderId",
          "type": "uint256"
        },
        {
          "internalType": "address",
          "name": "_distributor",
          "type": "address"
        },
        {
          "internalType": "address payable",
          "name": "_transporter",
          "type": "address"
        }
      ],
      "name": "checkStock",
      "outputs": [],
      "payable": true,
      "stateMutability": "payable",
      "type": "function"
    },
    {
      "constant": false,
      "inputs": [
        {
          "internalType": "uint256",
          "name": "_transportationcost",
          "type": "uint256"
        },
        {
          "internalType": "address payable",
          "name": "transporteraddress",
          "type": "address"
        }
      ],
      "name": "transportStocktoDistributor",
      "outputs": [],
      "payable": true,
      "stateMutability": "payable",
      "type": "function"
    },
    {
      "constant": false,
      "inputs": [
        {
          "internalType": "string",
          "name": "_productName",
          "type": "string"
        },
        {
          "internalType": "uint256",
          "name": "quantity",
          "type": "uint256"
        },
        {
          "internalType": "address",
          "name": "_distributor",
          "type": "address"
        }
      ],
      "name": "retailerRequirement",
      "outputs": [],
      "payable": true,
      "stateMutability": "payable",
      "type": "function"
    },
    {
      "constant": false,
      "inputs": [
        {
          "internalType": "uint256",
          "name": "_orderId",
          "type": "uint256"
        },
        {
          "internalType": "address",
          "name": "_retailer",
          "type": "address"
        },
        {
          "internalType": "address payable",
          "name": "_transporter",
          "type": "address"
        }
      ],
      "name": "checkdistributorStock",
      "outputs": [],
      "payable": true,
      "stateMutability": "payable",
      "type": "function"
    },
    {
      "constant": false,
      "inputs": [
        {
          "internalType": "uint256",
          "name": "_transportationcost",
          "type": "uint256"
        },
        {
          "internalType": "address payable",
          "name": "transporteraddress",
          "type": "address"
        }
      ],
      "name": "transportStocktoRetailer",
      "outputs": [],
      "payable": true,
      "stateMutability": "payable",
      "type": "function"
    },
    {
      "constant": false,
      "inputs": [
        {
          "internalType": "address payable",
          "name": "_retailer",
          "type": "address"
        },
        {
          "internalType": "string",
          "name": "_productName",
          "type": "string"
        }
      ],
      "name": "sellProductToCustomer",
      "outputs": [],
      "payable": true,
      "stateMutability": "payable",
      "type": "function"
    },
    {
      "constant": false,
      "inputs": [
        {
          "internalType": "string",
          "name": "_productName",
          "type": "string"
        }
      ],
      "name": "seeDetails",
      "outputs": [],
      "payable": false,
      "stateMutability": "nonpayable",
      "type": "function"
    }
  ],
  "bytecode": "0x6080604052670de0b6b3a7640000600255670de0b6b3a7640000600355600060045560006005553480156200003357600080fd5b506040518060400160405280601881526020017f424c4f434b434841494e204d414e554641435455524552530000000000000000815250600090805190602001906200008192919062000313565b5033600160006101000a81548173ffffffffffffffffffffffffffffffffffffffff021916908373ffffffffffffffffffffffffffffffffffffffff160217905550620000d3620000d960201b60201c565b6200047f565b600d604051620000e9906200045d565b90815260200160405180910390208060018154018082558091505090600182039060005260206000200160006040518060400160405280600681526020017f636f74746f6e0000000000000000000000000000000000000000000000000000815250909190915090805190602001906200016592919062000313565b5050600d60405162000177906200045d565b90815260200160405180910390208060018154018082558091505090600182039060005260206000200160006040518060400160405280600681526020017f746872656164000000000000000000000000000000000000000000000000000081525090919091509080519060200190620001f392919062000313565b5050600d604051620002059062000446565b90815260200160405180910390208060018154018082558091505090600182039060005260206000200160006040518060400160405280600681526020017f636f74746f6e0000000000000000000000000000000000000000000000000000815250909190915090805190602001906200028192919062000313565b5050600d604051620002939062000446565b90815260200160405180910390208060018154018082558091505090600182039060005260206000200160006040518060400160405280600781526020017f7a69707065727300000000000000000000000000000000000000000000000000815250909190915090805190602001906200030f92919062000313565b5050565b828054600181600116156101000203166002900490600052602060002090601f016020900481019282601f106200035657805160ff191683800117855562000387565b8280016001018555821562000387579182015b828111156200038657825182559160200191906001019062000369565b5b5090506200039691906200039a565b5090565b620003bf91905b80821115620003bb576000816000905550600101620003a1565b5090565b90565b6000620003d160058362000474565b91507f4a65616e730000000000000000000000000000000000000000000000000000006000830152600582019050919050565b600062000413600b8362000474565b91507f466f726d616c53686972740000000000000000000000000000000000000000006000830152600b82019050919050565b60006200045382620003c2565b9150819050919050565b60006200046a8262000404565b9150819050919050565b600081905092915050565b615ade806200048f6000396000f3fe60806040526004361061013f5760003560e01c80637544ec55116100b6578063a9415b9c1161006f578063a9415b9c146103f6578063adcfb4fc14610412578063b68c1cbc1461043b578063c804935814610466578063dd56313f14610482578063fc6409491461049e5761013f565b80637544ec55146103255780637bf12b1c1461034157806382c7454b1461036a57806389c11d4d1461038157806399849cc5146103be5780639f44e49d146103da5761013f565b806310dc8e581161010857806310dc8e58146102225780631d991f1c1461024b578063463f06a11461027657806361f5252e146102a157806364f1df33146102cc5780636e44d8d0146102e85761013f565b806207172f14610144578063018d4a551461018457806304caab27146101c15780630732846a146101dd5780630e641fb3146101f9575b600080fd5b34801561015057600080fd5b5061016b600480360361016691908101906151d6565b6104e0565b60405161017b949392919061582a565b60405180910390f35b34801561019057600080fd5b506101ab60048036036101a69190810190615375565b61065a565b6040516101b89190615785565b60405180910390f35b6101db60048036036101d691908101906152a7565b610736565b005b6101f760048036036101f291908101906153f2565b610d33565b005b34801561020557600080fd5b50610220600480360361021b91908101906153c9565b610d7e565b005b34801561022e57600080fd5b5061024960048036036102449190810190615212565b611076565b005b34801561025757600080fd5b5061026061135d565b60405161026d91906158d7565b60405180910390f35b34801561028257600080fd5b5061028b611363565b6040516102989190615785565b60405180910390f35b3480156102ad57600080fd5b506102b6611401565b6040516102c391906158d7565b60405180910390f35b6102e660048036036102e191908101906153c9565b611407565b005b3480156102f457600080fd5b5061030f600480360361030a9190810190615182565b611b77565b60405161031c91906158d7565b60405180910390f35b61033f600480360361033a919081019061542e565b611bb8565b005b34801561034d57600080fd5b506103686004803603610363919081019061530e565b612522565b005b34801561037657600080fd5b5061037f612dc9565b005b34801561038d57600080fd5b506103a860048036036103a39190810190615375565b612ff3565b6040516103b59190615785565b60405180910390f35b6103d860048036036103d3919081019061512e565b6130cf565b005b6103f460048036036103ef919081019061542e565b61378d565b005b610410600480360361040b9190810190615253565b614022565b005b34801561041e57600080fd5b5061043960048036036104349190810190615212565b6146a1565b005b34801561044757600080fd5b50610450614712565b60405161045d91906158d7565b60405180910390f35b610480600480360361047b91908101906152a7565b614718565b005b61049c600480360361049791908101906153f2565b614c5f565b005b3480156104aa57600080fd5b506104c560048036036104c091908101906151d6565b614caa565b6040516104d7969594939291906156a7565b60405180910390f35b600860205281600052604060002081815481106104f957fe5b906000526020600020906004020160009150915050806000018054600181600116156101000203166002900480601f0160208091040260200160405190810160405280929190818152602001828054600181600116156101000203166002900480156105a65780601f1061057b576101008083540402835291602001916105a6565b820191906000526020600020905b81548152906001019060200180831161058957829003601f168201915b505050505090806001015490806002018054600181600116156101000203166002900480601f01602080910402602001604051908101604052809291908181526020018280546001816001161561010002031660029004801561064a5780601f1061061f5761010080835404028352916020019161064a565b820191906000526020600020905b81548152906001019060200180831161062d57829003601f168201915b5050505050908060030154905084565b600e82805160208101820180518482526020830160208501208183528095505050505050818154811061068957fe5b90600052602060002001600091509150508054600181600116156101000203166002900480601f01602080910402602001604051908101604052809291908181526020018280546001816001161561010002031660029004801561072e5780601f106107035761010080835404028352916020019161072e565b820191906000526020600020905b81548152906001019060200180831161071157829003601f168201915b505050505081565b6060600660008373ffffffffffffffffffffffffffffffffffffffff1673ffffffffffffffffffffffffffffffffffffffff168152602001908152602001600020805480602002602001604051908101604052809291908181526020016000905b8282101561090b57838290600052602060002090600602016040518060c00160405290816000820160009054906101000a900473ffffffffffffffffffffffffffffffffffffffff1673ffffffffffffffffffffffffffffffffffffffff1673ffffffffffffffffffffffffffffffffffffffff168152602001600182015481526020016002820160009054906101000a900460ff16151515158152602001600382018054600181600116156101000203166002900480601f0160208091040260200160405190810160405280929190818152602001828054600181600116156101000203166002900480156108ce5780601f106108a3576101008083540402835291602001916108ce565b820191906000526020600020905b8154815290600101906020018083116108b157829003601f168201915b50505050508152602001600482015481526020016005820160009054906101000a900460ff16151515158152505081526020019060010190610797565b505050509050610919614dd2565b6040518060400160405280600781526020017f70656e64696e6700000000000000000000000000000000000000000000000000815250816040018190525083816020018181525050848160000181905250600080905060008090505b8351811015610bfa57610986614dfa565b600660008773ffffffffffffffffffffffffffffffffffffffff1673ffffffffffffffffffffffffffffffffffffffff16815260200190815260200160002082815481106109d057fe5b90600052602060002090600602016040518060c00160405290816000820160009054906101000a900473ffffffffffffffffffffffffffffffffffffffff1673ffffffffffffffffffffffffffffffffffffffff1673ffffffffffffffffffffffffffffffffffffffff168152602001600182015481526020016002820160009054906101000a900460ff16151515158152602001600382018054600181600116156101000203166002900480601f016020809104026020016040519081016040528092919081815260200182805460018160011615610100020316600290048015610afd5780601f10610ad257610100808354040283529160200191610afd565b820191906000526020600020905b815481529060010190602001808311610ae057829003601f168201915b50505050508152602001600482015481526020016005820160009054906101000a900460ff161515151581525050905060608160600151905088604051602001610b47919061561c565b6040516020818303038152906040528051906020012081604051602001610b6e919061561c565b604051602081830303815290604052805190602001201415610beb5787600660008973ffffffffffffffffffffffffffffffffffffffff1673ffffffffffffffffffffffffffffffffffffffff1681526020019081526020016000208481548110610bd557fe5b9060005260206000209060060201600101540293505b50508080600101915050610975565b50803414610c0757600080fd5b34826060018181525050600860008573ffffffffffffffffffffffffffffffffffffffff1673ffffffffffffffffffffffffffffffffffffffff16815260200190815260200160002082908060018154018082558091505090600182039060005260206000209060040201600090919290919091506000820151816000019080519060200190610c98929190614e4a565b50602082015181600101556040820151816002019080519060200190610cbf929190614e4a565b506060820151816003015550505060016005600082825401925050819055507f9133d3a7fcae147c4002fa488d4de14683299c4946b258d8705df37429dd28528260000151836020015184604001518560600151604051610d23949392919061582a565b60405180910390a1505050505050565b8073ffffffffffffffffffffffffffffffffffffffff166108fc839081150290604051600060405180830381858888f19350505050158015610d79573d6000803e3d6000fd5b505050565b610d86614dd2565b600860003373ffffffffffffffffffffffffffffffffffffffff1673ffffffffffffffffffffffffffffffffffffffff1681526020019081526020016000208281548110610dd057fe5b9060005260206000209060040201604051806080016040529081600082018054600181600116156101000203166002900480601f016020809104026020016040519081016040528092919081815260200182805460018160011615610100020316600290048015610e825780601f10610e5757610100808354040283529160200191610e82565b820191906000526020600020905b815481529060010190602001808311610e6557829003601f168201915b5050505050815260200160018201548152602001600282018054600181600116156101000203166002900480601f016020809104026020016040519081016040528092919081815260200182805460018160011615610100020316600290048015610f2e5780601f10610f0357610100808354040283529160200191610f2e565b820191906000526020600020905b815481529060010190602001808311610f1157829003601f168201915b5050505050815260200160038201548152505090506040518060400160405280600a81526020017f696e50726f677265737300000000000000000000000000000000000000000000815250816040018190525080600860003373ffffffffffffffffffffffffffffffffffffffff1673ffffffffffffffffffffffffffffffffffffffff1681526020019081526020016000208381548110610fcc57fe5b90600052602060002090600402016000820151816000019080519060200190610ff6929190614e4a565b5060208201518160010155604082015181600201908051906020019061101d929190614e4a565b50606082015181600301559050507f0155f87fedefe11f9b631185b7d2dec93e1a0648e935af2138ef7e1a1224692c81600001518260200151836040015160405161106a939291906157e5565b60405180910390a15050565b6060600982604051611088919061561c565b9081526020016040518091039020805480602002602001604051908101604052809291908181526020016000905b8282101561128c57838290600052602060002090600402016040518060800160405290816000820160009054906101000a900473ffffffffffffffffffffffffffffffffffffffff1673ffffffffffffffffffffffffffffffffffffffff1673ffffffffffffffffffffffffffffffffffffffff16815260200160018201548152602001600282018054600181600116156101000203166002900480601f0160208091040260200160405190810160405280929190818152602001828054600181600116156101000203166002900480156111d25780601f106111a7576101008083540402835291602001916111d2565b820191906000526020600020905b8154815290600101906020018083116111b557829003601f168201915b50505050508152602001600382018054600181600116156101000203166002900480601f0160208091040260200160405190810160405280929190818152602001828054600181600116156101000203166002900480156112745780601f1061124957610100808354040283529160200191611274565b820191906000526020600020905b81548152906001019060200180831161125757829003601f168201915b505050505081525050815260200190600101906110b6565b50505050905060008090505b815181101561135857600e836040516112b1919061561c565b90815260200160405180910390208282815181106112cb57fe5b6020026020010151604001518383815181106112e357fe5b602002602001015160600151604051602001611300929190615633565b6040516020818303038152906040529080600181540180825580915050906001820390600052602060002001600090919290919091509080519060200190611349929190614eca565b50508080600101915050611298565b505050565b60055481565b60008054600181600116156101000203166002900480601f0160208091040260200160405190810160405280929190818152602001828054600181600116156101000203166002900480156113f95780601f106113ce576101008083540402835291602001916113f9565b820191906000526020600020905b8154815290600101906020018083116113dc57829003601f168201915b505050505081565b60035481565b61140f614dd2565b600860003373ffffffffffffffffffffffffffffffffffffffff1673ffffffffffffffffffffffffffffffffffffffff168152602001908152602001600020828154811061145957fe5b9060005260206000209060040201604051806080016040529081600082018054600181600116156101000203166002900480601f01602080910402602001604051908101604052809291908181526020018280546001816001161561010002031660029004801561150b5780601f106114e05761010080835404028352916020019161150b565b820191906000526020600020905b8154815290600101906020018083116114ee57829003601f168201915b5050505050815260200160018201548152602001600282018054600181600116156101000203166002900480601f0160208091040260200160405190810160405280929190818152602001828054600181600116156101000203166002900480156115b75780601f1061158c576101008083540402835291602001916115b7565b820191906000526020600020905b81548152906001019060200180831161159a57829003601f168201915b5050505050815260200160038201548152505090506040518060400160405280600981526020017f636f6d706c657465640000000000000000000000000000000000000000000000815250816040018190525080600860003373ffffffffffffffffffffffffffffffffffffffff1673ffffffffffffffffffffffffffffffffffffffff168152602001908152602001600020838154811061165557fe5b9060005260206000209060040201600082015181600001908051906020019061167f929190614e4a565b506020820151816001015560408201518160020190805190602001906116a6929190614e4a565b50606082015181600301559050506060816000015190506116c5614f4a565b600c6000600160009054906101000a900473ffffffffffffffffffffffffffffffffffffffff1673ffffffffffffffffffffffffffffffffffffffff1673ffffffffffffffffffffffffffffffffffffffff16815260200190815260200160002082604051611734919061561c565b90815260200160405180910390206040518060200160405290816000820154815250509050826020015181600001510181600001818152505080600c6000600160009054906101000a900473ffffffffffffffffffffffffffffffffffffffff1673ffffffffffffffffffffffffffffffffffffffff1673ffffffffffffffffffffffffffffffffffffffff168152602001908152602001600020836040516117dd919061561c565b908152602001604051809103902060008201518160000155905050611800614f5d565b600784600001516040516118149190615605565b90815260200160405180910390206040518060800160405290816000820160009054906101000a900473ffffffffffffffffffffffffffffffffffffffff1673ffffffffffffffffffffffffffffffffffffffff1673ffffffffffffffffffffffffffffffffffffffff16815260200160018201548152602001600282018054600181600116156101000203166002900480601f0160208091040260200160405190810160405280929190818152602001828054600181600116156101000203166002900480156119265780601f106118fb57610100808354040283529160200191611926565b820191906000526020600020905b81548152906001019060200180831161190957829003601f168201915b50505050508152602001600382018054600181600116156101000203166002900480601f0160208091040260200160405190810160405280929190818152602001828054600181600116156101000203166002900480156119c85780601f1061199d576101008083540402835291602001916119c8565b820191906000526020600020905b8154815290600101906020018083116119ab57829003601f168201915b5050505050815250509050600160009054906101000a900473ffffffffffffffffffffffffffffffffffffffff16816000019073ffffffffffffffffffffffffffffffffffffffff16908173ffffffffffffffffffffffffffffffffffffffff16815250508060078260400151604051611a429190615605565b908152602001604051809103902060008201518160000160006101000a81548173ffffffffffffffffffffffffffffffffffffffff021916908373ffffffffffffffffffffffffffffffffffffffff160217905550602082015181600101556040820151816002019080519060200190611abd929190614e4a565b506060820151816003019080519060200190611ada929190614e4a565b509050503373ffffffffffffffffffffffffffffffffffffffff166108fc85606001519081150290604051600060405180830381858888f19350505050158015611b28573d6000803e3d6000fd5b507f2f7ff09630be6486514147a189f9b290cdcf8f5ef1d7fd2306559feedb9c73e7846040015183600001518360000151604051611b68939291906157a7565b60405180910390a15050505050565b600c60205281600052604060002081805160208101820180518482526020830160208501208183528095505050505050600091509150508060000154905081565b600160009054906101000a900473ffffffffffffffffffffffffffffffffffffffff1673ffffffffffffffffffffffffffffffffffffffff163373ffffffffffffffffffffffffffffffffffffffff1614611c1257600080fd5b611c1a614dd2565b600860003373ffffffffffffffffffffffffffffffffffffffff1673ffffffffffffffffffffffffffffffffffffffff1681526020019081526020016000208481548110611c6457fe5b9060005260206000209060040201604051806080016040529081600082018054600181600116156101000203166002900480601f016020809104026020016040519081016040528092919081815260200182805460018160011615610100020316600290048015611d165780601f10611ceb57610100808354040283529160200191611d16565b820191906000526020600020905b815481529060010190602001808311611cf957829003601f168201915b5050505050815260200160018201548152602001600282018054600181600116156101000203166002900480601f016020809104026020016040519081016040528092919081815260200182805460018160011615610100020316600290048015611dc25780601f10611d9757610100808354040283529160200191611dc2565b820191906000526020600020905b815481529060010190602001808311611da557829003601f168201915b505050505081526020016003820154815250509050611ddf614f4a565b600c6000600160009054906101000a900473ffffffffffffffffffffffffffffffffffffffff1673ffffffffffffffffffffffffffffffffffffffff1673ffffffffffffffffffffffffffffffffffffffff1681526020019081526020016000208260000151604051611e529190615605565b90815260200160405180910390206040518060200160405290816000820154815250509050816020015181600001511015611e8c57600080fd5b6040518060400160405280600981526020017f636f6d706c6574656400000000000000000000000000000000000000000000008152508260400181905250606082600001519050826020015182600001510382600001818152505081600c6000600160009054906101000a900473ffffffffffffffffffffffffffffffffffffffff1673ffffffffffffffffffffffffffffffffffffffff1673ffffffffffffffffffffffffffffffffffffffff16815260200190815260200160002082604051611f57919061561c565b90815260200160405180910390206000820151816000015590505082600860003373ffffffffffffffffffffffffffffffffffffffff1673ffffffffffffffffffffffffffffffffffffffff1681526020019081526020016000208781548110611fbd57fe5b90600052602060002090600402016000820151816000019080519060200190611fe7929190614e4a565b5060208201518160010155604082015181600201908051906020019061200e929190614e4a565b50606082015181600301559050503373ffffffffffffffffffffffffffffffffffffffff166108fc84606001519081150290604051600060405180830381858888f19350505050158015612066573d6000803e3d6000fd5b5061206f614f4a565b600c60008773ffffffffffffffffffffffffffffffffffffffff1673ffffffffffffffffffffffffffffffffffffffff16815260200190815260200160002084600001516040516120c09190615605565b90815260200160405180910390206040518060200160405290816000820154815250509050836020015181600001510181600001818152505080600c60008873ffffffffffffffffffffffffffffffffffffffff1673ffffffffffffffffffffffffffffffffffffffff168152602001908152602001600020856000015160405161214b9190615605565b9081526020016040518091039020600082015181600001559050506000606485606001518161217657fe5b049050612181614dfa565b60066000600160009054906101000a900473ffffffffffffffffffffffffffffffffffffffff1673ffffffffffffffffffffffffffffffffffffffff1673ffffffffffffffffffffffffffffffffffffffff16815260200190815260200160002089815481106121ed57fe5b90600052602060002090600602016040518060c00160405290816000820160009054906101000a900473ffffffffffffffffffffffffffffffffffffffff1673ffffffffffffffffffffffffffffffffffffffff1673ffffffffffffffffffffffffffffffffffffffff168152602001600182015481526020016002820160009054906101000a900460ff16151515158152602001600382018054600181600116156101000203166002900480601f01602080910402602001604051908101604052809291908181526020018280546001816001161561010002031660029004801561231a5780601f106122ef5761010080835404028352916020019161231a565b820191906000526020600020905b8154815290600101906020018083116122fd57829003601f168201915b50505050508152602001600482015481526020016005820160009054906101000a900460ff161515151581525050905087816000019073ffffffffffffffffffffffffffffffffffffffff16908173ffffffffffffffffffffffffffffffffffffffff1681525050600254816020015101816020018181525050600660008973ffffffffffffffffffffffffffffffffffffffff1673ffffffffffffffffffffffffffffffffffffffff168152602001908152602001600020819080600181540180825580915050906001820390600052602060002090600602016000909192909190915060008201518160000160006101000a81548173ffffffffffffffffffffffffffffffffffffffff021916908373ffffffffffffffffffffffffffffffffffffffff1602179055506020820151816001015560408201518160020160006101000a81548160ff021916908315150217905550606082015181600301908051906020019061248c929190614e4a565b506080820151816004015560a08201518160050160006101000a81548160ff0219169083151502179055505050506124c48288610d33565b7fd0fa6f73f2359d3c1e1ffc2401426eee89d7c7da29fb0bdcd63d92470281eb608660400151866000015185600001518460000151856020015160405161250f95949392919061587d565b60405180910390a1505050505050505050565b61252a614f4a565b600c60003373ffffffffffffffffffffffffffffffffffffffff1673ffffffffffffffffffffffffffffffffffffffff16815260200190815260200160002084604051612577919061561c565b9081526020016040518091039020604051806020016040529081600082015481525050905060008090506060600d866040516125b3919061561c565b9081526020016040518091039020805480602002602001604051908101604052809291908181526020016000905b8282101561269d578382906000526020600020018054600181600116156101000203166002900480601f0160208091040260200160405190810160405280929190818152602001828054600181600116156101000203166002900480156126895780601f1061265e57610100808354040283529160200191612689565b820191906000526020600020905b81548152906001019060200180831161266c57829003601f168201915b5050505050815260200190600101906125e1565b50505050905060008090505b8151811015612950576126ba614f4a565b600c60003373ffffffffffffffffffffffffffffffffffffffff1673ffffffffffffffffffffffffffffffffffffffff16815260200190815260200160002083838151811061270557fe5b602002602001015160405161271a9190615605565b908152602001604051809103902060405180602001604052908160008201548152505090508581600001510381600001818152505060098860405161275f919061561c565b9081526020016040518091039020600784848151811061277b57fe5b60200260200101516040516127909190615605565b9081526020016040518091039020908060018154018082558091505090600182039060005260206000209060040201600090919290919091506000820160009054906101000a900473ffffffffffffffffffffffffffffffffffffffff168160000160006101000a81548173ffffffffffffffffffffffffffffffffffffffff021916908373ffffffffffffffffffffffffffffffffffffffff1602179055506001820154816001015560028201816002019080546001816001161561010002031660029004612861929190614f9b565b5060038201816003019080546001816001161561010002031660029004612889929190614f9b565b5050505080600c60003373ffffffffffffffffffffffffffffffffffffffff1673ffffffffffffffffffffffffffffffffffffffff1681526020019081526020016000208484815181106128d957fe5b60200260200101516040516128ee9190615605565b908152602001604051809103902060008201518160000155905050600783838151811061291757fe5b602002602001015160405161292c9190615605565b908152602001604051809103902060010154840193505080806001019150506126a9565b50612959614dfa565b86816060018190525033816000019073ffffffffffffffffffffffffffffffffffffffff16908173ffffffffffffffffffffffffffffffffffffffff16815250506003548602955085830181602001818152505060008160400190151590811515815250506060600660003373ffffffffffffffffffffffffffffffffffffffff1673ffffffffffffffffffffffffffffffffffffffff168152602001908152602001600020805480602002602001604051908101604052809291908181526020016000905b82821015612b9357838290600052602060002090600602016040518060c00160405290816000820160009054906101000a900473ffffffffffffffffffffffffffffffffffffffff1673ffffffffffffffffffffffffffffffffffffffff1673ffffffffffffffffffffffffffffffffffffffff168152602001600182015481526020016002820160009054906101000a900460ff16151515158152602001600382018054600181600116156101000203166002900480601f016020809104026020016040519081016040528092919081815260200182805460018160011615610100020316600290048015612b565780601f10612b2b57610100808354040283529160200191612b56565b820191906000526020600020905b815481529060010190602001808311612b3957829003601f168201915b50505050508152602001600482015481526020016005820160009054906101000a900460ff16151515158152505081526020019060010190612a1f565b505050509050600181510182608001818152505060018260a001901515908115158152505085856000015101856000018181525050600660003373ffffffffffffffffffffffffffffffffffffffff1673ffffffffffffffffffffffffffffffffffffffff168152602001908152602001600020829080600181540180825580915050906001820390600052602060002090600602016000909192909190915060008201518160000160006101000a81548173ffffffffffffffffffffffffffffffffffffffff021916908373ffffffffffffffffffffffffffffffffffffffff1602179055506020820151816001015560408201518160020160006101000a81548160ff0219169083151502179055506060820151816003019080519060200190612cc0929190614e4a565b506080820151816004015560a08201518160050160006101000a81548160ff02191690831515021790555050505084600c60003373ffffffffffffffffffffffffffffffffffffffff1673ffffffffffffffffffffffffffffffffffffffff16815260200190815260200160002089604051612d3c919061561c565b908152602001604051809103902060008201518160000155905050612d6088611076565b7f873a4ec09a23a2a60017e09fc2d8e1098a08dc2aea5c20459fb4dea4ad93c226826000015183602001518460400151856060015186608001518760a001518b60000151604051612db7979695949392919061570f565b60405180910390a15050505050505050565b600d604051612dd790615677565b90815260200160405180910390208060018154018082558091505090600182039060005260206000200160006040518060400160405280600681526020017f636f74746f6e000000000000000000000000000000000000000000000000000081525090919091509080519060200190612e51929190614eca565b5050600d604051612e6190615677565b90815260200160405180910390208060018154018082558091505090600182039060005260206000200160006040518060400160405280600681526020017f746872656164000000000000000000000000000000000000000000000000000081525090919091509080519060200190612edb929190614eca565b5050600d604051612eeb90615662565b90815260200160405180910390208060018154018082558091505090600182039060005260206000200160006040518060400160405280600681526020017f636f74746f6e000000000000000000000000000000000000000000000000000081525090919091509080519060200190612f65929190614eca565b5050600d604051612f7590615662565b90815260200160405180910390208060018154018082558091505090600182039060005260206000200160006040518060400160405280600781526020017f7a6970706572730000000000000000000000000000000000000000000000000081525090919091509080519060200190612fef929190614eca565b5050565b600d82805160208101820180518482526020830160208501208183528095505050505050818154811061302257fe5b90600052602060002001600091509150508054600181600116156101000203166002900480601f0160208091040260200160405190810160405280929190818152602001828054600181600116156101000203166002900480156130c75780601f1061309c576101008083540402835291602001916130c7565b820191906000526020600020905b8154815290600101906020018083116130aa57829003601f168201915b505050505081565b6060600660008473ffffffffffffffffffffffffffffffffffffffff1673ffffffffffffffffffffffffffffffffffffffff168152602001908152602001600020805480602002602001604051908101604052809291908181526020016000905b828210156132a457838290600052602060002090600602016040518060c00160405290816000820160009054906101000a900473ffffffffffffffffffffffffffffffffffffffff1673ffffffffffffffffffffffffffffffffffffffff1673ffffffffffffffffffffffffffffffffffffffff168152602001600182015481526020016002820160009054906101000a900460ff16151515158152602001600382018054600181600116156101000203166002900480601f0160208091040260200160405190810160405280929190818152602001828054600181600116156101000203166002900480156132675780601f1061323c57610100808354040283529160200191613267565b820191906000526020600020905b81548152906001019060200180831161324a57829003601f168201915b50505050508152602001600482015481526020016005820160009054906101000a900460ff16151515158152505081526020019060010190613130565b5050505090506132b2614dd2565b6040518060400160405280600981526020017f636f6d706c6574656400000000000000000000000000000000000000000000008152508160400181905250600860008573ffffffffffffffffffffffffffffffffffffffff1673ffffffffffffffffffffffffffffffffffffffff16815260200190815260200160002081908060018154018082558091505090600182039060005260206000209060040201600090919290919091506000820151816000019080519060200190613377929190614e4a565b5060208201518160010155604082015181600201908051906020019061339e929190614e4a565b50606082015181600301555050506133b4614f4a565b600c60008673ffffffffffffffffffffffffffffffffffffffff1673ffffffffffffffffffffffffffffffffffffffff16815260200190815260200160002084604051613401919061561c565b90815260200160405180910390206040518060200160405290816000820154815250509050600181600001510381600001818152505080600c60008773ffffffffffffffffffffffffffffffffffffffff1673ffffffffffffffffffffffffffffffffffffffff16815260200190815260200160002085604051613485919061561c565b9081526020016040518091039020600082015181600001559050506134a8614dfa565b60008090505b845181101561374957600660008873ffffffffffffffffffffffffffffffffffffffff1673ffffffffffffffffffffffffffffffffffffffff168152602001908152602001600020818154811061350157fe5b90600052602060002090600602016040518060c00160405290816000820160009054906101000a900473ffffffffffffffffffffffffffffffffffffffff1673ffffffffffffffffffffffffffffffffffffffff1673ffffffffffffffffffffffffffffffffffffffff168152602001600182015481526020016002820160009054906101000a900460ff16151515158152602001600382018054600181600116156101000203166002900480601f01602080910402602001604051908101604052809291908181526020018280546001816001161561010002031660029004801561362e5780601f106136035761010080835404028352916020019161362e565b820191906000526020600020905b81548152906001019060200180831161361157829003601f168201915b50505050508152602001600482015481526020016005820160009054906101000a900460ff161515151581525050915060608260600151905086604051602001613678919061561c565b604051602081830303815290604052805190602001208160405160200161369f919061561c565b60405160208183030381529060405280519060200120141561373b578773ffffffffffffffffffffffffffffffffffffffff166108fc349081150290604051600060405180830381858888f19350505050158015613701573d6000803e3d6000fd5b5033836000019073ffffffffffffffffffffffffffffffffffffffff16908173ffffffffffffffffffffffffffffffffffffffff16815250505b5080806001019150506134ae565b507f8971aa8ff822291b5ea9f962514348872c52d74698b0adf723da55dfc89b3cfa816000015160405161377d919061568c565b60405180910390a1505050505050565b613795614dd2565b600860003373ffffffffffffffffffffffffffffffffffffffff1673ffffffffffffffffffffffffffffffffffffffff16815260200190815260200160002084815481106137df57fe5b9060005260206000209060040201604051806080016040529081600082018054600181600116156101000203166002900480601f0160208091040260200160405190810160405280929190818152602001828054600181600116156101000203166002900480156138915780601f1061386657610100808354040283529160200191613891565b820191906000526020600020905b81548152906001019060200180831161387457829003601f168201915b5050505050815260200160018201548152602001600282018054600181600116156101000203166002900480601f01602080910402602001604051908101604052809291908181526020018280546001816001161561010002031660029004801561393d5780601f106139125761010080835404028352916020019161393d565b820191906000526020600020905b81548152906001019060200180831161392057829003601f168201915b50505050508152602001600382015481525050905061395a614f4a565b600c60003373ffffffffffffffffffffffffffffffffffffffff1673ffffffffffffffffffffffffffffffffffffffff16815260200190815260200160002082600001516040516139ab9190615605565b908152602001604051809103902060405180602001604052908160008201548152505090506040518060400160405280600981526020017f636f6d706c6574656400000000000000000000000000000000000000000000008152508260400181905250606082600001519050826020015182600001510382600001818152505081600c60003373ffffffffffffffffffffffffffffffffffffffff1673ffffffffffffffffffffffffffffffffffffffff16815260200190815260200160002082604051613a79919061561c565b90815260200160405180910390206000820151816000015590505082600860003373ffffffffffffffffffffffffffffffffffffffff1673ffffffffffffffffffffffffffffffffffffffff1681526020019081526020016000208781548110613adf57fe5b90600052602060002090600402016000820151816000019080519060200190613b09929190614e4a565b50602082015181600101556040820151816002019080519060200190613b30929190614e4a565b50606082015181600301559050503373ffffffffffffffffffffffffffffffffffffffff166108fc84606001519081150290604051600060405180830381858888f19350505050158015613b88573d6000803e3d6000fd5b50613b91614f4a565b600c60008773ffffffffffffffffffffffffffffffffffffffff1673ffffffffffffffffffffffffffffffffffffffff1681526020019081526020016000208460000151604051613be29190615605565b90815260200160405180910390206040518060200160405290816000820154815250509050836020015181600001510181600001818152505080600c60008873ffffffffffffffffffffffffffffffffffffffff1673ffffffffffffffffffffffffffffffffffffffff1681526020019081526020016000208560000151604051613c6d9190615605565b90815260200160405180910390206000820151816000015590505060006064856060015181613c9857fe5b049050613ca3614dfa565b600660003373ffffffffffffffffffffffffffffffffffffffff1673ffffffffffffffffffffffffffffffffffffffff1681526020019081526020016000208981548110613ced57fe5b90600052602060002090600602016040518060c00160405290816000820160009054906101000a900473ffffffffffffffffffffffffffffffffffffffff1673ffffffffffffffffffffffffffffffffffffffff1673ffffffffffffffffffffffffffffffffffffffff168152602001600182015481526020016002820160009054906101000a900460ff16151515158152602001600382018054600181600116156101000203166002900480601f016020809104026020016040519081016040528092919081815260200182805460018160011615610100020316600290048015613e1a5780601f10613def57610100808354040283529160200191613e1a565b820191906000526020600020905b815481529060010190602001808311613dfd57829003601f168201915b50505050508152602001600482015481526020016005820160009054906101000a900460ff161515151581525050905087816000019073ffffffffffffffffffffffffffffffffffffffff16908173ffffffffffffffffffffffffffffffffffffffff1681525050600254816020015101816020018181525050600660008973ffffffffffffffffffffffffffffffffffffffff1673ffffffffffffffffffffffffffffffffffffffff168152602001908152602001600020819080600181540180825580915050906001820390600052602060002090600602016000909192909190915060008201518160000160006101000a81548173ffffffffffffffffffffffffffffffffffffffff021916908373ffffffffffffffffffffffffffffffffffffffff1602179055506020820151816001015560408201518160020160006101000a81548160ff0219169083151502179055506060820151816003019080519060200190613f8c929190614e4a565b506080820151816004015560a08201518160050160006101000a81548160ff021916908315150217905550505050613fc48288614c5f565b7f961f926f4a2f9a2bceb63e7391517282ac3161bc22ebe32d28bb6c01ed4b38588660400151866000015185600001518460000151856020015160405161400f95949392919061587d565b60405180910390a1505050505050505050565b606060066000600160009054906101000a900473ffffffffffffffffffffffffffffffffffffffff1673ffffffffffffffffffffffffffffffffffffffff1673ffffffffffffffffffffffffffffffffffffffff168152602001908152602001600020805480602002602001604051908101604052809291908181526020016000905b8282101561421957838290600052602060002090600602016040518060c00160405290816000820160009054906101000a900473ffffffffffffffffffffffffffffffffffffffff1673ffffffffffffffffffffffffffffffffffffffff1673ffffffffffffffffffffffffffffffffffffffff168152602001600182015481526020016002820160009054906101000a900460ff16151515158152602001600382018054600181600116156101000203166002900480601f0160208091040260200160405190810160405280929190818152602001828054600181600116156101000203166002900480156141dc5780601f106141b1576101008083540402835291602001916141dc565b820191906000526020600020905b8154815290600101906020018083116141bf57829003601f168201915b50505050508152602001600482015481526020016005820160009054906101000a900460ff161515151581525050815260200190600101906140a5565b505050509050614227614dd2565b6040518060400160405280600781526020017f70656e64696e6700000000000000000000000000000000000000000000000000815250816040018190525082816020018181525050838160000181905250600080905060008090505b835181101561454c57614294614dfa565b60066000600160009054906101000a900473ffffffffffffffffffffffffffffffffffffffff1673ffffffffffffffffffffffffffffffffffffffff1673ffffffffffffffffffffffffffffffffffffffff168152602001908152602001600020828154811061430057fe5b90600052602060002090600602016040518060c00160405290816000820160009054906101000a900473ffffffffffffffffffffffffffffffffffffffff1673ffffffffffffffffffffffffffffffffffffffff1673ffffffffffffffffffffffffffffffffffffffff168152602001600182015481526020016002820160009054906101000a900460ff16151515158152602001600382018054600181600116156101000203166002900480601f01602080910402602001604051908101604052809291908181526020018280546001816001161561010002031660029004801561442d5780601f106144025761010080835404028352916020019161442d565b820191906000526020600020905b81548152906001019060200180831161441057829003601f168201915b50505050508152602001600482015481526020016005820160009054906101000a900460ff161515151581525050905060608160600151905087604051602001614477919061561c565b604051602081830303815290604052805190602001208160405160200161449e919061561c565b60405160208183030381529060405280519060200120141561453d578660066000600160009054906101000a900473ffffffffffffffffffffffffffffffffffffffff1673ffffffffffffffffffffffffffffffffffffffff1673ffffffffffffffffffffffffffffffffffffffff168152602001908152602001600020848154811061452757fe5b9060005260206000209060060201600101540293505b50508080600101915050614283565b5080341461455957600080fd5b6001600454016004819055503482606001818152505060086000600160009054906101000a900473ffffffffffffffffffffffffffffffffffffffff1673ffffffffffffffffffffffffffffffffffffffff1673ffffffffffffffffffffffffffffffffffffffff16815260200190815260200160002082908060018154018082558091505090600182039060005260206000209060040201600090919290919091506000820151816000019080519060200190614618929190614e4a565b5060208201518160010155604082015181600201908051906020019061463f929190614e4a565b50606082015181600301555050507f0a3171242998e3bcfe7e0932e343f9b5ef7415d206a6519d925387afa7c0e5bb8260000151836020015184604001518560600151604051614692949392919061582a565b60405180910390a15050505050565b604051806020016040528082815250600a60003373ffffffffffffffffffffffffffffffffffffffff1673ffffffffffffffffffffffffffffffffffffffff168152602001908152602001600020600082015181600001908051906020019061470b929190614e4a565b5090505050565b60045481565b614720614dd2565b6040518060400160405280600781526020017f70656e64696e6700000000000000000000000000000000000000000000000000815250816040018190525082816020018181525050838160000181905250614779614f5d565b600785604051614789919061561c565b90815260200160405180910390206040518060800160405290816000820160009054906101000a900473ffffffffffffffffffffffffffffffffffffffff1673ffffffffffffffffffffffffffffffffffffffff1673ffffffffffffffffffffffffffffffffffffffff16815260200160018201548152602001600282018054600181600116156101000203166002900480601f01602080910402602001604051908101604052809291908181526020018280546001816001161561010002031660029004801561489b5780601f106148705761010080835404028352916020019161489b565b820191906000526020600020905b81548152906001019060200180831161487e57829003601f168201915b50505050508152602001600382018054600181600116156101000203166002900480601f01602080910402602001604051908101604052809291908181526020018280546001816001161561010002031660029004801561493d5780601f106149125761010080835404028352916020019161493d565b820191906000526020600020905b81548152906001019060200180831161492057829003601f168201915b5050505050815250509050670de0b6b3a76400008160200181815250508160000151816040018190525082816000019073ffffffffffffffffffffffffffffffffffffffff16908173ffffffffffffffffffffffffffffffffffffffff1681525050600a60008473ffffffffffffffffffffffffffffffffffffffff1673ffffffffffffffffffffffffffffffffffffffff1681526020019081526020016000206000018054600181600116156101000203166002900480601f016020809104026020016040519081016040528092919081815260200182805460018160011615610100020316600290048015614a755780601f10614a4a57610100808354040283529160200191614a75565b820191906000526020600020905b815481529060010190602001808311614a5857829003601f168201915b5050505050816060018190525080600786604051614a93919061561c565b908152602001604051809103902060008201518160000160006101000a81548173ffffffffffffffffffffffffffffffffffffffff021916908373ffffffffffffffffffffffffffffffffffffffff160217905550602082015181600101556040820151816002019080519060200190614b0e929190614e4a565b506060820151816003019080519060200190614b2b929190614e4a565b50905050600082602001518260200151029050803414614b4a57600080fd5b34836060018181525050600860008573ffffffffffffffffffffffffffffffffffffffff1673ffffffffffffffffffffffffffffffffffffffff16815260200190815260200160002083908060018154018082558091505090600182039060005260206000209060040201600090919290919091506000820151816000019080519060200190614bdb929190614e4a565b50602082015181600101556040820151816002019080519060200190614c02929190614e4a565b50606082015181600301555050507fc6dc1245b6a0abd9a342153eaf00f89865eeddec5b0aa4043da87a1c2fee2ea9836000015184602001518560400151604051614c4f939291906157e5565b60405180910390a1505050505050565b8073ffffffffffffffffffffffffffffffffffffffff166108fc839081150290604051600060405180830381858888f19350505050158015614ca5573d6000803e3d6000fd5b505050565b60066020528160005260406000208181548110614cc357fe5b9060005260206000209060060201600091509150508060000160009054906101000a900473ffffffffffffffffffffffffffffffffffffffff16908060010154908060020160009054906101000a900460ff1690806003018054600181600116156101000203166002900480601f016020809104026020016040519081016040528092919081815260200182805460018160011615610100020316600290048015614daf5780601f10614d8457610100808354040283529160200191614daf565b820191906000526020600020905b815481529060010190602001808311614d9257829003601f168201915b5050505050908060040154908060050160009054906101000a900460ff16905086565b6040518060800160405280606081526020016000815260200160608152602001600081525090565b6040518060c00160405280600073ffffffffffffffffffffffffffffffffffffffff1681526020016000815260200160001515815260200160608152602001600081526020016000151581525090565b828054600181600116156101000203166002900490600052602060002090601f016020900481019282601f10614e8b57805160ff1916838001178555614eb9565b82800160010185558215614eb9579182015b82811115614eb8578251825591602001919060010190614e9d565b5b509050614ec69190615022565b5090565b828054600181600116156101000203166002900490600052602060002090601f016020900481019282601f10614f0b57805160ff1916838001178555614f39565b82800160010185558215614f39579182015b82811115614f38578251825591602001919060010190614f1d565b5b509050614f469190615022565b5090565b6040518060200160405280600081525090565b6040518060800160405280600073ffffffffffffffffffffffffffffffffffffffff1681526020016000815260200160608152602001606081525090565b828054600181600116156101000203166002900490600052602060002090601f016020900481019282601f10614fd45780548555615011565b8280016001018555821561501157600052602060002091601f016020900482015b82811115615010578254825591600101919060010190614ff5565b5b50905061501e9190615022565b5090565b61504491905b80821115615040576000816000905550600101615028565b5090565b90565b60008135905061505681615a56565b92915050565b60008135905061506b81615a6d565b92915050565b600082601f83011261508257600080fd5b81356150956150908261591f565b6158f2565b915080825260208301602083018583830111156150b157600080fd5b6150bc838284615a03565b50505092915050565b600082601f8301126150d657600080fd5b81356150e96150e48261594b565b6158f2565b9150808252602083016020830185838301111561510557600080fd5b615110838284615a03565b50505092915050565b60008135905061512881615a84565b92915050565b6000806040838503121561514157600080fd5b600061514f8582860161505c565b925050602083013567ffffffffffffffff81111561516c57600080fd5b615178858286016150c5565b9150509250929050565b6000806040838503121561519557600080fd5b60006151a385828601615047565b925050602083013567ffffffffffffffff8111156151c057600080fd5b6151cc85828601615071565b9150509250929050565b600080604083850312156151e957600080fd5b60006151f785828601615047565b925050602061520885828601615119565b9150509250929050565b60006020828403121561522457600080fd5b600082013567ffffffffffffffff81111561523e57600080fd5b61524a848285016150c5565b91505092915050565b6000806040838503121561526657600080fd5b600083013567ffffffffffffffff81111561528057600080fd5b61528c858286016150c5565b925050602061529d85828601615119565b9150509250929050565b6000806000606084860312156152bc57600080fd5b600084013567ffffffffffffffff8111156152d657600080fd5b6152e2868287016150c5565b93505060206152f386828701615119565b925050604061530486828701615047565b9150509250925092565b60008060006060848603121561532357600080fd5b600084013567ffffffffffffffff81111561533d57600080fd5b615349868287016150c5565b935050602061535a86828701615119565b925050604061536b86828701615119565b9150509250925092565b6000806040838503121561538857600080fd5b600083013567ffffffffffffffff8111156153a257600080fd5b6153ae85828601615071565b92505060206153bf85828601615119565b9150509250929050565b6000602082840312156153db57600080fd5b60006153e984828501615119565b91505092915050565b6000806040838503121561540557600080fd5b600061541385828601615119565b92505060206154248582860161505c565b9150509250929050565b60008060006060848603121561544357600080fd5b600061545186828701615119565b935050602061546286828701615047565b92505060406154738682870161505c565b9150509250925092565b615486816159a9565b82525050565b615495816159cd565b82525050565b60006154a682615982565b6154b0818561599e565b93506154c0818560208601615a12565b80840191505092915050565b60006154d782615977565b6154e1818561598d565b93506154f1818560208601615a12565b6154fa81615a45565b840191505092915050565b600061551082615977565b61551a818561599e565b935061552a818560208601615a12565b80840191505092915050565b600061554360058361599e565b91507f4a65616e730000000000000000000000000000000000000000000000000000006000830152600582019050919050565b600061558360148361599e565b91507f206973206d616e756661637475726564206279200000000000000000000000006000830152601482019050919050565b60006155c3600b8361599e565b91507f466f726d616c53686972740000000000000000000000000000000000000000006000830152600b82019050919050565b6155ff816159f9565b82525050565b60006156118284615505565b915081905092915050565b6000615628828461549b565b915081905092915050565b600061563f8285615505565b915061564a82615576565b91506156568284615505565b91508190509392505050565b600061566d82615536565b9150819050919050565b6000615682826155b6565b9150819050919050565b60006020820190506156a1600083018461547d565b92915050565b600060c0820190506156bc600083018961547d565b6156c960208301886155f6565b6156d6604083018761548c565b81810360608301526156e881866154cc565b90506156f760808301856155f6565b61570460a083018461548c565b979650505050505050565b600060e082019050615724600083018a61547d565b61573160208301896155f6565b61573e604083018861548c565b818103606083015261575081876154cc565b905061575f60808301866155f6565b61576c60a083018561548c565b61577960c08301846155f6565b98975050505050505050565b6000602082019050818103600083015261579f81846154cc565b905092915050565b600060608201905081810360008301526157c181866154cc565b90506157d060208301856155f6565b6157dd604083018461547d565b949350505050565b600060608201905081810360008301526157ff81866154cc565b905061580e60208301856155f6565b818103604083015261582081846154cc565b9050949350505050565b6000608082019050818103600083015261584481876154cc565b905061585360208301866155f6565b818103604083015261586581856154cc565b905061587460608301846155f6565b95945050505050565b600060a082019050818103600083015261589781886154cc565b90506158a660208301876155f6565b6158b360408301866155f6565b6158c0606083018561547d565b6158cd60808301846155f6565b9695505050505050565b60006020820190506158ec60008301846155f6565b92915050565b6000604051905081810181811067ffffffffffffffff8211171561591557600080fd5b8060405250919050565b600067ffffffffffffffff82111561593657600080fd5b601f19601f8301169050602081019050919050565b600067ffffffffffffffff82111561596257600080fd5b601f19601f8301169050602081019050919050565b600081519050919050565b600081519050919050565b600082825260208201905092915050565b600081905092915050565b60006159b4826159d9565b9050919050565b60006159c6826159d9565b9050919050565b60008115159050919050565b600073ffffffffffffffffffffffffffffffffffffffff82169050919050565b6000819050919050565b82818337600083830152505050565b60005b83811015615a30578082015181840152602081019050615a15565b83811115615a3f576000848401525b50505050565b6000601f19601f8301169050919050565b615a5f816159a9565b8114615a6a57600080fd5b50565b615a76816159bb565b8114615a8157600080fd5b50565b615a8d816159f9565b8114615a9857600080fd5b5056fea365627a7a72315820943beb8ddb3e5f7464a1ab5195b9afd459e8463e54cda53dc95514e1f7f73d516c6578706572696d656e74616cf564736f6c63430005100040",
  "source": "pragma solidity ^0.5.0;\r\npragma experimental ABIEncoderV2;\r\n\r\ncontract SupplyChainCode {\r\n    string public company_name; // Name of the Company\r\n    address payable companyAddress;\r\n\r\n    uint256 profit = 1 ether;\r\n    //uint256 retailer_profit2 = 1 ether;\r\n    uint256 public myEtherValue = 1 ether;\r\n    uint256 public companyOrderNumber = 0;\r\n    uint256 public retailerOrderNumber = 0;\r\n\r\n    // 1. Product refers to the Final Product manufactured by the deployer Company (Admin Company which deploys)\r\n    struct product {\r\n        address owner;\r\n        uint256 price;\r\n        bool isSold;\r\n        string name;\r\n        uint256 productId;\r\n        bool isCompleted;\r\n    }\r\n\r\n    //1. Refers to the manufacturer struct which gets orders from admin Company\r\n    struct manufacturer {\r\n        string name;\r\n    }\r\n\r\n    struct component {\r\n        address owner;\r\n        uint256 price;\r\n        string componentName;\r\n        string manufacturer; // to display customer the name of the manufacturer.\r\n    }\r\n\r\n    struct inventory {\r\n        uint256 productCount;\r\n    }\r\n    struct partners {\r\n        string Partnername;\r\n    }\r\n\r\n    modifier Owner {\r\n        require(\r\n            msg.sender == companyAddress\r\n        );\r\n        _;\r\n    }\r\n\r\n    mapping(address => product[]) public products; // refers to the products the Admin Company has manufactured\r\n    mapping(string => component) fetchComponent; // to fetch component from its name\r\n    mapping(address => Order[]) public giveOrders; //1. general mapping to give orders up the hierarchy\r\n    mapping(string => component[]) components; // to access product components through component name\r\n  //  mapping(string => product) fetchproducts; // to fetch products through product's name\r\n    mapping(address => partners) companies; //mapping to fetch partner companies\r\n    mapping(address => mapping(string => component)) fetchIndividualComponent; // to fetch individual components made by a company with company address and component name\r\n    mapping(address => mapping(string => inventory)) public companyInventory;\r\n    mapping(string => string[]) public productToComponentMapping;\r\n   //mapping(uint => uint[]) public prod;\r\n    //mapping(uint => string[]) public prod2;\r\n    mapping(string => string[]) public productDetailsMapping;\r\n   // mapping(address => distributor) distributorInventory;\r\n\r\n /*   struct distributor {\r\n        string distributor_name;\r\n        string location;\r\n       // uint256 distributor_profit;\r\n    }*/\r\n\r\n    //1. Defines the properties of the order.\r\n    struct Order {\r\n        string name;\r\n        uint256 quantity;\r\n        string status;\r\n       // uint256 orderId;\r\n        uint256 orderPayment;\r\n    }\r\n\r\n    // EVENT LIST\r\n    event orderCreatedforCompany(\r\n        string name,\r\n        uint256 quantity,\r\n        string status,\r\n       // uint256 orderId,\r\n        uint256 orderPayment\r\n    );\r\n\r\n    event orderCreatedfordistributor(\r\n        string name,\r\n        uint256 quantity,\r\n        string status,\r\n        //uint256 orderId,\r\n        uint256 orderPayment\r\n    );\r\n\r\n    event orderCompletedByDistributor(\r\n        string status,\r\n        uint256 productCount,\r\n        address owner\r\n    );\r\n\r\n    event productCreated(\r\n        address owner,\r\n        uint256 price,\r\n        bool isSold,\r\n        string name,\r\n        uint256 productId,\r\n        bool isCompleted,\r\n        uint256 productCount\r\n    );\r\n\r\n    event checkStockByCompany(\r\n        string status,\r\n        uint256 productCount,\r\n        uint256 productCount2,\r\n        address owner,\r\n        uint256 price\r\n    );\r\n\r\n    event transportStockDistributor(uint256 cost);\r\n\r\n    event stockCheckedByDistributor(\r\n        string status,\r\n        uint256 productCount,\r\n        uint256 productCount2,\r\n        address owner,\r\n        uint256 price\r\n    );\r\n\r\n    event transportationToRetailer(uint256 cost);\r\n\r\n    event ordertoManufacturerCreated(\r\n        string name,\r\n        uint256 quantity,\r\n        string status\r\n        //uint256 orderId\r\n    );\r\n\r\n    event orderStatus(\r\n        string name,\r\n        uint256 quantity,\r\n        string status\r\n        //uint256 orderId\r\n    );\r\n\r\n    event sellProductToCustomerEvent(address owner);\r\n\r\n    constructor() public {\r\n        company_name = \"BLOCKCHAIN MANUFACTURERS\";\r\n        companyAddress = msg.sender;\r\n        setComponentsOfProducts();\r\n    }\r\n\r\n    //1. this function is used to set product's components for each product that the AdminCompany manufacturers\r\n    //2. the company will add each product it manufactures here\r\n    // to be called in constructor.\r\n    function setComponentsOfProducts() public {\r\n\r\n        productToComponentMapping[\"FormalShirt\"].push(\"cotton\");\r\n\r\n        productToComponentMapping[\"FormalShirt\"].push(\"thread\");\r\n        productToComponentMapping[\"Jeans\"].push(\"cotton\");\r\n        productToComponentMapping[\"Jeans\"].push(\"zippers\");\r\n\r\n       // return \"components have been set\";\r\n    }\r\n\r\n    //1. Function used by manufacturer to sign-up\r\n    function signUp(string memory companyName) public {\r\n        companies[msg.sender] = partners(companyName);\r\n    }\r\n\r\n    //1. This function is executed by admin company to give order of the components to the manufacturer company\r\n    //2. Admin company passes the component name which it requires along with the quantity and address of the manufacturer company\r\n\r\n    function giveOrderToManufacturer(\r\n        string memory _Componentname,\r\n        uint256 number,\r\n        address _manufacturerCompany\r\n    ) public payable{\r\n       // require(number > 0);\r\n        //bytes memory _cName2 = bytes(_Componentname);\r\n        //require(!(_cName2.length == 0));\r\n        Order memory order1;\r\n        order1.status = \"pending\";\r\n        order1.quantity = number;\r\n        order1.name = _Componentname;\r\n        component memory component1 = fetchComponent[_Componentname];\r\n        component1.price = 1 ether;\r\n        component1.componentName = order1.name;\r\n        component1.owner = _manufacturerCompany;\r\n        component1.manufacturer = companies[_manufacturerCompany].Partnername;\r\n        fetchComponent[_Componentname] = component1;\r\n        uint256 totalPrice = component1.price * order1.quantity;\r\n        require(msg.value == totalPrice);\r\n        order1.orderPayment = msg.value;\r\n      \r\n     //   order1.orderId = orders.length + 1;\r\n        giveOrders[_manufacturerCompany].push(order1);\r\n        emit ordertoManufacturerCreated(\r\n            order1.name,\r\n            order1.quantity,\r\n            order1.status\r\n           // order1.orderId\r\n        );\r\n\r\n    }\r\n\r\n    //1. This function is used by the manufacturer company for its internal progress as a step to complete order for Admin Company\r\n    function orderInProgress(uint256 _orderId) public {\r\n        Order memory order1 = giveOrders[msg.sender][_orderId]; // orders of the respective manufacturer will be shown\r\n        order1.status = \"inProgress\";\r\n        giveOrders[msg.sender][_orderId] = order1;\r\n        emit orderStatus(\r\n            order1.name,\r\n            order1.quantity,\r\n            order1.status\r\n          //  order1.orderId\r\n        );\r\n    }\r\n\r\n    //1. This function is also called by Manufacturer  to notify that order has been completed and components have been made\r\n    // modifier to be added.\r\n    function orderCompleted(uint256 _orderId) public payable {\r\n        // require(\r\n        //     msg.sender != companyAddress\r\n        // );\r\n\r\n        Order memory order1 = giveOrders[msg.sender][_orderId];\r\n        order1.status = \"completed\";\r\n        giveOrders[msg.sender][_orderId] = order1;\r\n        string memory _Componentname = order1.name; // to set the inventory of component we have fetched component name from\r\n        inventory memory inventory1 = companyInventory[companyAddress][_Componentname];\r\n        inventory1.productCount = inventory1.productCount + order1.quantity;\r\n        companyInventory[companyAddress][_Componentname] = inventory1;\r\n        component memory component1 = fetchComponent[order1.name];\r\n        component1.owner = companyAddress;\r\n        fetchComponent[component1.componentName] = component1;\r\n        msg.sender.transfer(order1.orderPayment);\r\n        emit orderCompletedByDistributor(\r\n            order1.status,\r\n            inventory1.productCount,\r\n            component1.owner\r\n        );\r\n    }\r\n\r\n    //1. This function is run by Admin Company to create products after getting raw materials from manufacturers\r\n   function createProduct(string memory _productName, uint256 _makingPrice,uint256 _count)public {\r\n        inventory memory inventory1 = companyInventory[msg.sender][_productName];\r\n        uint256 price = 0;\r\n        string[] memory ingredients = productToComponentMapping[_productName];\r\n        for (uint256 i = 0; i < ingredients.length; i++) {\r\n            inventory memory ingredientInventory = companyInventory[msg\r\n                .sender][ingredients[i]];\r\n           // require(ingredientInventory.productCount > 0);\r\n            ingredientInventory.productCount =\r\n                ingredientInventory.productCount -\r\n                _count;\r\n            components[_productName].push(fetchComponent[ingredients[i]]);\r\n            companyInventory[msg.sender][ingredients[i]] = ingredientInventory;\r\n            price = price + fetchComponent[ingredients[i]].price;\r\n        }\r\n\r\n        product memory product1;\r\n        product1.name = _productName;\r\n        product1.owner = msg.sender;\r\n        _makingPrice = _makingPrice * myEtherValue;\r\n        product1.price = price + _makingPrice;\r\n        product1.isSold = false;\r\n        product[] memory productsList = products[msg.sender];\r\n        product1.productId = productsList.length + 1;\r\n        product1.isCompleted = true;\r\n        inventory1.productCount = inventory1.productCount + _count;\r\n        products[msg.sender].push(product1);\r\n        companyInventory[msg.sender][_productName] = inventory1;\r\n        seeDetails(_productName);\r\n        emit productCreated(\r\n            product1.owner,\r\n            product1.price,\r\n            product1.isSold,\r\n            product1.name,\r\n            product1.productId,\r\n            product1.isCompleted,\r\n            inventory1.productCount\r\n        );\r\n    }\r\n\r\n    // 1.The distributor sends his requirement to the company, mentioning the productname and quantity required\r\n    function distributorRequirement(\r\n        string memory _productName,\r\n        uint256 quantity\r\n    ) public payable {\r\n      //  require(msg.sender != companyAddress);\r\n        product[] memory productList = products[companyAddress];\r\n        Order memory order1;\r\n        order1.status = \"pending\";\r\n        order1.quantity = quantity;\r\n        order1.name = _productName;\r\n        uint256 totalPrice = 0;\r\n        for (uint256 i = 0; i < productList.length; i++) {\r\n            // fetch the product which the company has\r\n            product memory product1 = products[companyAddress][i];\r\n            string memory productOrderedName = product1.name;\r\n            if (\r\n                (keccak256(abi.encodePacked((productOrderedName))) ==\r\n                    keccak256(abi.encodePacked((_productName))))\r\n            ) // match which product the distributor has required.qquantity\r\n            {\r\n                totalPrice = products[companyAddress][i].price * quantity;\r\n            }\r\n\r\n        }\r\n        require(msg.value == totalPrice);\r\n        companyOrderNumber = companyOrderNumber +1;\r\n        order1.orderPayment = msg.value;\r\n        giveOrders[companyAddress].push(order1);\r\n        emit orderCreatedforCompany(\r\n            order1.name,\r\n            order1.quantity,\r\n            order1.status,\r\n            //order1.orderId,\r\n            order1.orderPayment\r\n        );\r\n    }\r\n\r\n    //1. This function is called by Admin Company to check if it has sufficient stock to give to distibutor and initiates product transport\r\n    function checkStock(\r\n        uint256 _orderId,\r\n        address _distributor,\r\n        address payable _transporter\r\n    ) public payable Owner {\r\n        Order memory order1 = giveOrders[msg.sender][_orderId];\r\n        inventory memory inventory1 = companyInventory[companyAddress][order1.name];\r\n        require(inventory1.productCount >= order1.quantity); // added newwwwwww\r\n        order1.status = \"completed\";\r\n        string memory _productOrderedName = order1.name; // to set the inventory of component we have fetched component name from\r\n        inventory1.productCount = inventory1.productCount - order1.quantity;\r\n        companyInventory[companyAddress][_productOrderedName] = inventory1;\r\n        giveOrders[msg.sender][_orderId] = order1;\r\n        msg.sender.transfer(order1.orderPayment);\r\n        inventory memory inventory2 = companyInventory[_distributor][order1\r\n            .name];\r\n        inventory2.productCount = inventory2.productCount + order1.quantity;\r\n        companyInventory[_distributor][order1.name] = inventory2;\r\n        uint256 transportation_cost = order1.orderPayment / 100;\r\n        product memory product2 = products[companyAddress][_orderId];\r\n        product2.owner = _distributor;\r\n        product2.price = product2.price + profit;\r\n        products[_distributor].push(product2);\r\n\r\n        transportStocktoDistributor(transportation_cost, _transporter);\r\n\r\n        emit checkStockByCompany(\r\n            order1.status,\r\n            inventory1.productCount,\r\n            inventory2.productCount,\r\n            product2.owner,\r\n            product2.price\r\n        );\r\n    }\r\n\r\n    // 1. The Admin Company transfers one hundredth amount of the order received to transporter as part of transporter fees\r\n    function transportStocktoDistributor(\r\n        uint256 _transportationcost,\r\n        address payable transporteraddress\r\n    ) public payable {\r\n        transporteraddress.transfer(_transportationcost);\r\n    }\r\n\r\n    //1 . The retailer orders for the required product in this function\r\n    function retailerRequirement(\r\n        string memory _productName,\r\n        uint256 quantity,\r\n        address _distributor\r\n    ) public payable {\r\n       // require(msg.sender != companyAddress);\r\n\r\n        product[] memory productList = products[_distributor];\r\n        Order memory order1;\r\n        order1.status = \"pending\";\r\n        order1.quantity = quantity;\r\n        order1.name = _productName;\r\n        uint256 totalPricetoRetailer = 0;\r\n\r\n        for (uint256 i = 0; i < productList.length; i++) {\r\n            product memory product1 = products[_distributor][i];\r\n            string memory productOrderedName = product1.name;\r\n            if (\r\n                (keccak256(abi.encodePacked((productOrderedName))) ==\r\n                    keccak256(abi.encodePacked((_productName))))\r\n            ) {\r\n                totalPricetoRetailer =\r\n                    products[_distributor][i].price *\r\n                    quantity;\r\n            }\r\n\r\n        }\r\n        require(msg.value == totalPricetoRetailer);\r\n        order1.orderPayment = msg.value;\r\n        giveOrders[_distributor].push(order1);\r\n        retailerOrderNumber +=1;\r\n\r\n        emit orderCreatedfordistributor(\r\n            order1.name,\r\n            order1.quantity,\r\n            order1.status,\r\n            //order1.orderId,\r\n            order1.orderPayment\r\n        );\r\n\r\n    }\r\n\r\n    //1. This function is called by Distributor to check if it has sufficient stock to give to retailer and initiates product transport\r\n    function checkdistributorStock(\r\n        uint256 _orderId,\r\n        address _retailer,\r\n        address payable _transporter // change according to new manufacturer 2 layer\r\n    ) public payable {\r\n        //require(msg.sender != companyAddress);\r\n        Order memory order1 = giveOrders[msg.sender][_orderId];\r\n        inventory memory inventory1 = companyInventory[msg.sender][order1.name];\r\n      //  require(inventory1.productCount >= order1.quantity);\r\n        order1.status = \"completed\";\r\n        string memory _productOrderedName = order1.name; // to set the inventory of component we have fetched component name from\r\n        inventory1.productCount = inventory1.productCount - order1.quantity;\r\n        companyInventory[msg.sender][_productOrderedName] = inventory1;\r\n        giveOrders[msg.sender][_orderId] = order1;\r\n        msg.sender.transfer(order1.orderPayment);\r\n        inventory memory inventory2 = companyInventory[_retailer][order1.name];\r\n        inventory2.productCount = inventory2.productCount + order1.quantity;\r\n        companyInventory[_retailer][order1.name] = inventory2;\r\n        uint256 transportation_cost = order1.orderPayment / 100;\r\n        product memory product2 = products[msg.sender][_orderId];\r\n        product2.owner = _retailer;\r\n        product2.price = product2.price + profit;\r\n        products[_retailer].push(product2);\r\n        transportStocktoRetailer(transportation_cost, _transporter);\r\n\r\n        emit stockCheckedByDistributor(\r\n            order1.status,\r\n            inventory1.productCount,\r\n            inventory2.productCount,\r\n            product2.owner,\r\n            product2.price\r\n        );\r\n\r\n    }\r\n    // 1. The Distributor transfers one hundredth amount of the order received to transporter as part of transporter fees\r\n    function transportStocktoRetailer(\r\n        uint256 _transportationcost,\r\n        address payable transporteraddress\r\n    ) public payable {\r\n        transporteraddress.transfer(_transportationcost);\r\n    }\r\n\r\n    // function for customer to buy products\r\n    //1. This function is used by customers to buy products from retailer\r\n    //2. The customer can only buy one product at a time\r\n    function sellProductToCustomer(\r\n        address payable _retailer,\r\n        string memory _productName\r\n    ) public payable {\r\n        product[] memory productList = products[_retailer];\r\n        Order memory order1;\r\n        order1.status = \"completed\";\r\n        giveOrders[_retailer].push(order1);\r\n        inventory memory inventory2 = companyInventory[_retailer][_productName];\r\n        inventory2.productCount = inventory2.productCount - 1;\r\n        companyInventory[_retailer][_productName] = inventory2;\r\n        product memory product1;\r\n        \r\n        for (uint256 i = 0; i < productList.length; i++) {\r\n            product1 = products[_retailer][i];\r\n            string memory productOrderedName = product1.name;\r\n            if (\r\n                (keccak256(abi.encodePacked((productOrderedName))) ==\r\n                    keccak256(abi.encodePacked((_productName))))\r\n            ) {\r\n                _retailer.transfer(msg.value);\r\n                product1.owner = msg.sender;\r\n            }\r\n        }\r\n        emit sellProductToCustomerEvent(product1.owner);\r\n\r\n    }\r\n\r\n    //1. This function is used by the cutomer to see product details, especially, the manufacturer of raw materials of the product\r\n    function seeDetails(string memory _productName) public {\r\n      //  require(msg.sender == companyAddress);\r\n        component[] memory productComponentList = components[_productName];\r\n        for (uint256 i = 0; i < productComponentList.length; i++) {\r\n            productDetailsMapping[_productName].push(\r\n                string(\r\n                    abi.encodePacked(\r\n                        (productComponentList[i].componentName),\r\n                        (\" is manufactured by \"),\r\n                        (productComponentList[i].manufacturer)\r\n                    )\r\n                )\r\n            );\r\n        }\r\n    }\r\n\r\n   // function see(string memory pn) public view returns (string[] memory) {\r\n     //   return productDetailsMapping[pn];\r\n  //  }\r\n}",
  "sourcePath": "C:\\Users\\Admin\\Downloads\\week11 (1)\\week11\\src\\contracts\\SupplyChainCode.sol",
  "compiler": {
    "name": "solc",
    "version": "0.5.16+commit.9c3226ce.Emscripten.clang"
  },
  "schemaVersion": "3.0.23",
  "updatedAt": "2020-04-19T07:46:52.099Z",
  "networkType": "ethereum",
  "devdoc": {
    "methods": {}
  },
  "userdoc": {
    "methods": {}
  }
}